:020000040000FA
:3D000000FFFF627F2100FFFFFFFFFFFFFFFFFFFFFFFFFFFFFFFFFFFFFFFFFFFFFFFFFFFFFFFFFFFFFFFFFFFFFFFFFFFFFFFFFFFFFFFFFFFFFFFFFFFFFFFFFFFFFFFA
:3D003D00601886611886611886611886611886611986611886611886611886010000000018866158866558866559866118866118866118866118866118866180A2AC
:3D007A00401004411004411004411004411004E1100441100441100441100401000000001004413884433884E338044110044110044110044110044110044180EF24
:3D00B700000000000000000000000000000000000000000000000000000000000000000000000000000000000000000000000000000000000000000000000080E7A5
:3D00F400000000000000000000000000000000000000000000000000000000000000000000000000000000000000000000000000000000000000000000000080E768
:3D013100000000000000000000000000000000800000000000000000000000000000000000000020000A202082A0000000000000000000000000000000000000E5A0
:3D016E00000000000000000000000000000000208000000000000000000000000000000000000010000000009008000000000000000000000000000000000000DF2D
:3D01AB00000000000000000000000000000000000000000000000000000000000000000000000000000000000000000000000000000000000000000000000080E7B0
:3D01E800000000000000000000000000000000000000000000000000000000000000000000000000000000000000000000000000000000000000000000000180F663
:3D022500000000000000000000000000000000000000000000000000000000000000000000000000002800000801000000000000000000000000000801000000E57D
:3D026200000000000000000000000000000000000000000000000000000000000000000000100000000000000000020000001000000001000001020000000080F6C3
:3D029F00000000000000000000000000000000000000000000000000000000000000000000000000000000000000000000000000000000000000002000000080E59D
:3D02DC00000000000000000000000000000000000000000000000000000000000000000000010000000000000000000000000000000000000000010000000080E77C
:3D031900000000000000000000000000000000000000000000000000000000000000000000000000000000000000000000000000000000000000000000000480A380
:3D035600000000000000000000000000000000000000000000000000000000000000000000000000000000000000000000000000000000000000000000000080E703
:3D039300000000000000000000000000000000000000000000000000000000000000000000020000000000002000020000002002000000002800000000020000C7F6
:3D03D000000000000000000000000000000000000000000000000000000000000000000000000000000000000000000000000000000000000020000200000080E767
:3D040D00000000000000000000000000000000000000000000000000000000000000000000010000001000000000000000000000001000000000010000010080E629
:3D044A00000000000000000000000000000000000000000000000000000000000000000000000000000000000000000000000000000000000000000000000080E70E
:3D048700000000000000000000000000000000000000000000000000000000000000000000000000000000000000000000000000000000000000000000000080E7D1
:3D04C400000000000000000000000000000000000000000000000000000000000000000000000000000000000000000000000000000000000000000000000080E794
:3D050100000000000000000000000000000000000000000000000000000000000000000000000000000000000000000000000000000000000000000000000080E756
:3D053E00000000000000000000000000000000000000000000000000000000000000000000000000000000000000000000000000000000000000000000000080E719
:3D057B00000000000000000000000000000000000000000000000000000000000000000000000000000000000000000000000000000000000000000000000080E7DC
:3D05B8000000000000000000000000000000000000000000000000000000000000000000000000000010000000000100000000000010000000000010000100C0A272
:3D05F500000000000000000000000000000000000000000000000000000000000000000000000000000000000000000000000000000000000000000000000080E762
:3D063200000000000000000000000000000000000000000000000000000000000000000000000000000000000000000000000000000000000000000000000080E724
:3D066F000000000000000000000000000000000000000000000000000000000000000000000000000000000000000000000000000000000000000000000000C0A3EB
:3D06AC00000000000000000000000000000000000000000000000000000000000000000040000000000400000440000000000400000400000440000440000080E792
:3D06E900400001010000000000000000000000000000000004100000000001000000000000000800002000000000000000000002000000000000000000802802FEAB
:3D072600400000000000000000000000000000000000000000000000000001000000000000000000000000000000000000000002000000000000000000000080973C
:3D076300000000000000000000000000000000000000000004100000000000000000000000000000002000000000000000000000000000000000000000000080B5F0
:3D07A000000001010000000000000000000000000000000000000000000000000000000000000000000000000000000000000000000000000000000000000080F6A4
:3D07DD00000000000000000000000000000000000000000000000000000000000000000000000C0000000000000000000000000000000000000000000080280289A0
:3D081A00000110000110000110000110000110000110000110000110000110000000000040000440000440000440000440000440000440000440000440000480E73D
:3D085700000000000000000000000000000000000000000000000000000000000000000000000000000000000000000000000000000000000000000000000080E7FD
:3D089400820118800118800118800118800118800118800118800118800118000000000060000660000660000660000660000660000660000660000660000608ED39
:3D08D100800008800008800008800008800008800008800008800008800008000000000020000220000220000220000220000220000220000220000220000208EFF9
:3D090E000000000000000000000000000000000000000000000000000000000000000000600000000006000004600000000004000006000004600400400008109484
:3D094B000000000000000000000000000000000000000000000000000000000000000000F0400000000F04800DF1080000800D01008F00800DF10000D89001088119
:3D09880000000000000000000000000000000000000000000000000000000000000000006800000080060000046A0000000004008006000004690000C0000408F51E
:3D09C500020000000000000000000000000000000000000000000000000000000000000070000000000700000D70000000002D000007000005700000500041088D30
:3D0A0200000000000000000000000000000000000000000000000000000000000000000008000000800000000408000000000400800000000408000040080880E7DC
:3D0A3F00000000000000000000000000000000000000000000000000000000000000000008000000800000004408000000000C04800000002C08000040000880A971
:3D0A7C00000000000000000000000000000000000000000000000000000000000000000000000000000000004400100000000402000002004400100040200080C7E6
:3D0AB900020000000000000000000000000000000000000000000000000000000000000000200000000801000E80000000000600000800000E8000006000088AFDBC
:3D0AF600000000000000000000000000000000000000000000000000000000000000000060000000000600000064000000000600000604000064084660000800AB24
:3D0B33000000000000000000000000000000000000000000000000000000000000000000F0400000000F04800FF0080000808700000700800FF0000F78880180F6A8
:3D0B7000000000000000000000000000000000000000000000000000000000000000000068000000800600000469000000000601800600000469800660100080E796
:3D0BAD00000000000000000000000000000000000000000000000000000000000000000070000000000700000D70000000000F00000700000D700007F0004180F2DA
:3D0BEA00020000000000000000000000000000000000000000000000000000000000000008000000800000002608000000002000800000002608800000020888ED49
:3D0C2700000000000000000000000000000000000000000000000000000000000000000008000000800000000608000000000600800000000608800060000C00A3D7
:3D0C6400020000000000000000000000000000000000000000000000000000000000000000200000000000000600000000000400000000000600100040000008DDEC
:3D0CA1000000000000000000000000000000000000000000000000000000000000000000800000000080000026004000000024000000020026800008420208828F7F
:3D0CDE00000000000000000000000000000000000000000000000000000000000000000000000000000600000640000000000600000604000660084660000800EF72
:3D0D1B00000000000000000000000000000000000000000000000000000000000000000078080000008F00008FD8100000008F000007000087F0000FF0880180CC34
:3D0D5800000000000000000000000000000000000000000000000000000000000000000040100000800600800640000000800600800600800668800668000080F763
:3D0D95000200000000000000000000000000000000000000000000000000000000000000D0000000000700000750020000000700000700000770000770004188FA30
:3D0DD200000000000000000000000000000000000000000000000000000000000000000060010000800000800040100000800000800000800008800008000800D447
:3D0E0F00000000000000000000000000000000000000000000000000000000000000000060000000800000800040000000800000800000800008800008000800C529
:3D0E4C00000000000000000000000000000000000000000000000000000000000000000060000000000000000040040000008000000002000000000000040480A912
:3D0E89000200000000000000000000000000000000000000000000000000000000000000600100000008010008E200000000080000080000000240808000088A945E
:3D0EC600000000000000000000000000000000000000000000000000000000000000000000000000000600000660000000000600008600000660000660000C00CD52
:3D0F0300000000000000000000000000000000000000000000000000000000000000000078080000008F00008F78080000008F00000F000087F0080FF1880180EE7F
:3D0F4000000000000000000000000000000000000000000000000000000000000000000040100000800600800660000000800600800600800668800668000080D57B
:3D0F7D000000000000000000000000000000000000000000000000000000000000000000D00000000007000007F0200000000700000700000770000770004180F09C
:3D0FBA00020000000000000000000000000000000000000000000000000000000000000060020000800000800000010000800000800000800008800008000888886D
:3D0FF7000000000000000000000000000000000000000000000000000000000000000000E0000000800000800060000000800000800000800008800008000880E7FE
:3D103400020000000000000000000000000000000000000000000000000000000000000060000000000000000040000000000000000000000002100080000088FFC4
:3D1071000000000000000000000000000000000000000000000000000000000000000000E0020000008000008040010000000004000002000880000882000882A6D7
:3D10AE00000000000000000000000000000000000000000000000000000000000000000060080000008600000664080000000600008600000664000660080800EF4A
:3D10EB000000000000000000000000000000000000000000000000000000000000000000F0000000000F00800FF0000000808700000F00800FF0080FF1800500A286
:3D112800000000000000000000000000000000000000000000000000000000000000000068000000800600000669000000000601800600000669800668000000FF44
:3D116500020000000000000000000000000000000000000000000000000000000000000070000000000700000F70000000000F00000700000F70000770004188F888
:3D11A200000000000000000000000000000000000000000000000000000000000000000008000000800000000008000000000000800000000008800008000880EFF9
:3D11DF0000000000000000000000000000000000000000000000000000000000000000000800000080000000160800000000160080000000160880000800088088E1
:3D121C00000000000000000000000000000000000000000000000000000000000000000000000000000000001400100000001400000002001400000000040080962D
:3D125900020000000000000000000000000000000000000000000000000000000000000000200000008000000C80000000000C00000800000C0040808000088AE94F
:3D12960000000000000000000000000000000000000000000000000000000000000000006008000000000400066008000000060000000000066000006408080089D8
:3D12D3000000000000000000000000000000000000000000000000000000000000000000F0000000800F00008FF0000000008F00808700008778880FF0800180F6CD
:3D131000000000000000000000000000000000000000000000000000000000000000000068000000000401800668000000800600000401800660000469000080D512
:3D134D00000000000000000000000000000000000000000000000000000000000000000070000000000D00000770000000000700000D000007F0200D70004180F016
:3D138A00020000000000000000000000000000000000000000000000000000000000000008000000002600800008000000800000000600800000000608000C88CDF9
:3D13C700000000000000000000000000000000000000000000000000000000000000000008000000000E00800008000000800000002E008000E0022E08000800E518
:3D140400020000000000000000000000000000000000000000000000000000000000000000200000000600000000000000004000002600000040022680000088E9C4
:3D144100000000000000000000000000000000000000000000000000000000000000000080000000002E0000080440000000080000060000084400068000088AAF53
:3D147E00000000000000000000000000000000000000000000000000000000000000000040000000000004000660000000000600000000000660008600000800EBA2
:3D14BB000000000000000000000000000000000000000000000000000000000000000000D8100000800F00008F78080000008F00808700008778080FD8900188F6DB
:3D14F8000000000000000000000000000000000000000000000000000000000000000000404000000004018006600000008006000004018006608006600200088F5C
:3D153500020000000000000000000000000000000000000000000000000000000000000050000000000D000007F0200000000700000D000007F02007F0004188DA3E
:3D157200000000000000000000000000000000000000000000000000000000000000000040020000002600800000020000800000000600800000800000000800A123
:3D15AF000000000000000000000000000000000000000000000000000000000000000000400000000006008000E0000000800000002600800060820080020800A126
:3D15EC0000000000000000000000000000000000000000000000000000000000000000004004000000060000084000000000080000160000084001006040000081A8
:3D1629000200000000000000000000000000000000000000000000000000000000000000E00000000026000008C0020000000800000600000840000862000C8AA9B3
:3D1666000000000000000000000000000000000000000000000000000000000000000000600000000000040000000000000000000000000000600000640008008196
:3D16A3000000000000000000000000000000000000000000000000000000000000000000F0080000800F00800DD9100000800D01808700800D79880F78880100F6E4
:3D16E000000000000000000000000000000000000000000000000000000000000000000068000000000401002660020000002600000401002660000461100000CDE5
:3D171D00000000000000000000000000000000000000000000000000000000000000000070000000000D00000F70000000000F00000D00000FF0200DF0004580B4E2
:3D175A00020000000000000000000000000000000000000000000000000000000000000008000000000E000010000000000010000086000010000206000108888962
:3D1797000000000000000000000000000000000000000000000000000000000000000000080000000006000000800400000000000006000000E00026600008808F00
:3D17D400000000000000000000000000000000000000000000000000000000000000000000000000001600000660080000000E00002600000644081640000000C3B5
:3D181100000000000000000000000000000000000000000000000000000000000000000000200000000600002E60000000000600000E0000064000064001080282B9
:3D184E00000110000110000110000110000110000110000110000110000110000000000040040440004440004440040440004440004440004440044440040480E769
:3D188B00000000000000000000000000000000000000000000000000000000000000000000000000000000000000000000000000000000000000000000000080E7B9
:3D18C800800118800118800118800118800118800118800118800118800118000000000040000660000460000440000660000460000460000440000440000680E711
:3D190500800008800008800008800008800008800008800008800008800008000000000020000220000220000220000220000220000220000220000220000280E744
:3D194200000000000000000000000000000000000000000000000000000000000000000008000000803000000000010000000000802800000090022808802802DCBF
:3D197F00401040000000000000000000000000000000000000000000000000000000000000000000000000000000000000000000000000000000000040000080A635
:3D19BC00000000000000000000000000000000000000000000000000000000000000000040000000000902000000000000000000000000000000000000000401C6D8
:3D19F900000000000000000000000000000004000000000000000000000000000000000000000000000000000000000000002000000000000000000010000080B449
:3D1A3600401040000000000000000000000004000000000000000000000000000000000008000000803902000220010000002200802800000290022A58802A82FFEE
:3D1A7300000000000000000000000000000000000000000000000000000000000000000000000000000000000400000000000000000000000000000000000080A30F
:3D1AB000000000000000000000000000000000000000000000000000000000000000000000000000000000000000040000000000000000000000000080000000E392
:3D1AED00000000000000000000000000000000000000000000000000000000000000000080000000000000000080000000000800000800000080000080000080E745
:3D1B2A00000000000000000000000000000000000000000000000000000000000000000000000000000002000002000000000000000000000002000002000090F6F0
:3D1B6700000000000000000000000000000000000000000000000000000000000000000000000000000000000000000000000000000000000000000000000181E6D9
:3D1BA400000000000000000000000000000000000000000000000000000000000000000000000000000000000000000000000000000000004080000000000000E361
:3D1BE100000000000000000000000000000000000000000000000000000000000000000000080000000000000002100000000100008000008002100000000080FE1C
:3D1C1E00000000000000000000000000000000000000000000000000000000000000000000020000002000002100000000002300002800002104002030020000A7DD
:3D1C5B00000000000000000000000000000000000000000000000000000000000000000000000000000000000000000000000000000000000000000000000080E7E5
:3D1C9800000000000000000000000000000000000000000000000000000000000000000000000000000000000000000000000000000000000000000000400080A7A8
:3D1CD500000000000000000000000000000000000000000000000000000000000000000000000000000000001000010000000000000000000000000000000080E75A
:3D1D1200000000000000000000000000000000000000000000000000000000000000000000000000000000000001000000000000000004000000000000000080B758
:3D1D4F00000000000000000000000000000000000000000000000000000000000000000000200000000102000020400000001004000000000000400000000080956B
:3D1D8C000000000000000000000000000000000000000000000000000000000000000000200000000000000002A0000000008000000000000200000000080000E7E7
:3D1DC900000000000000000000000000000000000000000000000000000000000000000000000000000000000000000000000000000000000000000000000080E776
:3D1E0600000000000000000000000000000000000000000000000000000000000000000000000000000000000000000000000000000000000000000000000080E738
:3D1E4300000000000000000000000000000000000000000000000000000000000000000000000000000000000000000000000000000000000000000000000080E7FB
:3D1E8000000000000000000000000000000000000000000000000000000000000000000000000000000000000000000000000000000000000000000000000080E7BE
:3D1EBD00000000000000000000000000000000000000000000000000000000000000000000000000000000000000000000000000000000000000000010000080F662
:3D1EFA00000000000000000000000000000000000000000000000000000000000000000000400000000000000000000000000000000000000000000000000080A744
:3D1F3700000000000000000000000000000000000000000000000000000000000000000000000000000000000000000000000000000000000000000000000080E706
:3D1F7400000000000000000000000000000000000000000000000000000000000000000000000000000000000000000000000000000000000000000000000080E7C9
:3D1FB100000000000000000000000000000000000000010000000000000000000000000000040000044010000000044000040000000000040000000000000080F3DB
:3D1FEE00000000000000000000000000000000000000000000000000000000000000000000000000000000000000000000000000000000000000000000000080E74F
:3D202B00000000000000000000000000000000000000004000000000000000000000000000000000000000000000000000000000000010000000000002000080D2D4
:3D206800000000000000000000000000000000000000004000000000000000000000000000000000000000000000000000000000000000000000000000000080E398
:3D20A500000000000000000000000000004000000000000000000000000000000000000000100001100001000000100000120000000000100001100001100080F1D7
:3D20E200000000000000000000000000000000000000000001000000000000000000000000000000000000000000000000000000000000001000010000000080F738
:3D211F000000000000000000000000000000000000000000000000000000000000000000000000000000400000000000000000000000002000000000000000808320
:3D215C00000000000000000000000000000800000080000800000000000000000000000000000000000000000000000000000000000000000000000000000040A3D3
:3D219900000000000000000000000000400000000000000000000000000000000000000000000000000000000000000000000000000000000000000000000080A7A2
:3D21D600000000000000000000000000000000000000000000000000000000000000000000000000000000000020000020000000000000000200000020000080E703
:3D221300000000000000000000000000000000000000000000000000000000000000000000001000010000000000000000000000000000001000010000000080E705
:3D225000000000000000000000000000000000000000000000000000000000000000000000000000000000000000000000000000000000000000000000000080E7EA
:3D228D00000000000000000000000000000000000000000000000000000000000000000000000000000000000000000000000000000000000000000000000080E7AD
:3D22CA00000000000000000000000000000000000000000000000000000000000000000000000000000000000000000000000000000000000000000000000080E770
:3D2307000000000000000000000000000000000000000000000000000000000000000000A0200000000A00000000000000000000000000000A00000020000000C7DE
:3D234400000000000000000000000000000000000000000000000000000000000000000010000010040000000000000010040000000000000000000000000080F6AE
:3D238100000000000000000000000000000000000000000000000000000000000000000000000000000000000000000000000000000000000000000000000080E7B8
:3D23BE00000000000000000000000000000400000000000400000000000000000000000000000100011000000010000000010000000010000000201100000090D610
:3D23FB00000000000000000000000000000000000000000000000000000000000000000000000000000000000000000000000000000000000000000000000080E73E
:3D243800000000000000000000000000000000000000000200000000000000000000000000000000000000000000000000000000000000000000000000000080C520
:3D247500000000000000000000000000000000000000000000000000000000000000000000000000000000000000000000000000000000000000000000000080E7C3
:3D24B200000000000000000000000000000000000000000000000000000000000000000000000000000000000000000000000000000000000000000000000080E786
:3D24EF00400401010000000000000A2200000000400100000410000010000400000000000000001080508A220000000000000002000000000000000000000080F0D7
:3D252C00400000000000000000000A22000000000000000000000000100008000000000000000000000000000000000000000002000000000000000000000080BFAD
:3D256900000000000000000000000000000000000000000004100000004000000000000000000000005000000000000000000000000000000000000000000080B65B
:3D25A600000401010000000000000000000000004000000000000000000000000000000000000000000000000000000000000000000000000000000000000080B67C
:3D25E30000000000000000000000000000000000400100000000000000000C00000000000000001080008A220000000000000000000000000000000000000080A80A
:3D262000000110000110000110000110000110000110000110000110000110000000000040000440000440000440000440000440000440000440000440000480E719
:3D265D00000000000000000000000000000000000000000000000000000000000000000000000000000000000000000000000000000000000000000000000080E7D9
:3D269A00820118800118800118800118800118800118800118800118800118000000000060000660000660000660000660000660000660000660000660000608ED15
:3D26D700800008800008800008800008800008800008800008800008800008000000000020000220000220000220000220000220000220000220000220000208EFD5
:3D271400000000000000000000000000000000000080000000000000000400000000000020100600400604000020000060040000000020004660400600000000D123
:3D275100000000000000000000000000E04300000016E04300000000600000000000000038000FFC800FD80400380800F0000000000038080FF8008F00000088ABA8
:3D278E000000000000000000000000000008000000180008000000000000000000000000208106400006000000202000680000000000A080064080060000000893CA
:3D27CB00020000000000000000000000C0010000003CC401000000004004000000000000700007D0100F11040070000070000000000070000750200700000088A355
:3D28080000000000000000000000000000000000001001000000000080050000000000002080006000008000002000000800000000002080006080000000008088CD
:3D284500000000000000000000000000000A00000010000A000000000002000000000000A08200E0022E000000A00400080000000000A0C000E0820000000080D43C
:3D288200000000000000000000000000800100000018800100000000000000000000000020000064022400040020000080000000000020000000020000000080B857
:3D28BF000200000000000000000000008001000000188401000000000000000000000000201000600004800000201000800000000000201080600008010000089E39
:3D28FC000000000000000000000000008021000000008021000000000000000000000000004006600006000000E00000600400000000E0008660080600000080C554
:3D293900000000000000000000000000C00300000000C003000000000000000000000000F8000FF4088F980400F80000F00000000000F8000FF0008F00000000BA85
:3D297600000000000000000000000000A00100000000A00100000000000000000000000040800668800600000040000068000000000040800668800600000000CD05
:3D29B300000000000000000000000000C00100000000C001000000000000000000000000D01007700007500400502000700000000000502007700007000000008461
:3D29F0000200000000000000000000002000000000002000000000000000000000000000608200088000800000600200080000000000608200088000000000088121
:3D2A2D00000000000000000000000000200000000000200000000000000000000000000060800008800000000060000008000000000060800008800000000000896B
:3D2A6A000200000000000000000000000000000000000080000000000000000000000000600000840000000400000000001000000000000000004000000000889756
:3D2AA700000000000000000000000000004000000000000200000000000000000000000060020880004880000060020000000000000060024800000001000088BDAC
:3D2AE400000000000000000000000000802100000000842100000000000000000000000060000E60000640000060040000400000000060008660080E000000909437
:3D2B2100000000000000000000000000C0030000003EC003000000000000000000000000F0880FF0088F980400F00000F80000000000F0080FF0800F00000008A1F2
:3D2B5E00000000000000000000000000A00100000000A001000000000000000000000000680004688006000000680000400000000000688006680000000000888197
:3D2B9B00020000000000000000000000C0010000001CC20100000000000000000000000070000572000710040070000050400000000070000770000702000088E3FE
:3D2BD8000000000000000000000000002000000000002200000000000000000000000000080006088000800000080000600000000000088000080006000000808B5F
:3D2C1500000000000000000000000000200000000038200000000000000000000000000008002608800000000008000060020000000008800008004600000080B6DE
:3D2C52000000000000000000000000000000000000180010000000000000000000000000800000001000000400000800600100000000004000800044000000008498
:3D2C8F00020000000000000000000000008000000018000000000000000000000000000080001600008080000080000060000000000000008000000400000008B9B3
:3D2CCC00000000000000000000000000000000000018000000000000000000000000000060000600400201000060040060000000000060000600000400000000CC10
:3D2D0900000000000000000000000000E04300000006E243000000000000000000000000F0088FF88003980400F00000F01000000000F0088F78A00502000000EE1D
:3D2D46000000000000000000000000000000000000180200000000000000000000000000688006400012400000680000680000000000688006400000000000009B1D
:3D2D8300000000000000000000000000C0050000003CC005000000000000000000000000700007D01007100400700000700000000000700007D0100704000000C9D0
:3D2DC000020000000000000000000000000400000018010400000000000000000000000008800060010280000008000008000000000008800060010600000008B190
:3D2DFD00000000000000000000000000000000000018000000000000000000000000000008800060001200000008000008000000000008800060001600000000BABF
:3D2E3A00020000000000000000000000800100000018800100000000000000000000000000000064000200040080000080000000000000400060001600000088B5E2
:3D2E7700000000000000000000000000800100000018800100000000000000000000000080400060010281000000000080000000000080004860010600000080EE43
:3D2EB400000000000000000000000000802100000000812100000000800500000000000060401460400004000000000060000000000000000660088600000000BEAF
:3D2EF100000000000000000000000000C00300000006C003000000006000000000000000F8800D70800F980400782000F0100000000078208FF0000F00000080C892
:3D2F2E00000000000000000000000000A00100000000A00100000000A00100000000000060002468000400000040000068000000000040800668800600000080D4E3
:3D2F6B00020000000000000000000000C00100000004C40100000000C005000000000000F0100570000D110400D0100070000000000050400770000700000008F1EA
:3D2FA800000000000000000000000000200000000018200000000000200400000000000000000408000682000060000008000000000060800008800000000000907C
:3D2FE500000000000000000000000000200000000018200000000000200200000000000060018408000E00000060010008000000000060810008800000000000B9AF
:3D302200000000000000000000000000000200000000000000000000000000000000000040008480000642040060010000100000000060010000200000000000FBF2
:3D305F000200000000000000000000000000000000000082000000000000000000000000C00106800006800000E00000000000000000E00080800008010000889AF8
:3D309C000200000000000000000000008021000000808021000000000004000000000000600006604006040000600404014000000000600006640886000000009787
:3D30D900040000000000000000000000C00300000016C003000000006000000000000000F0088F70800F980400F08005F80000000000F0880FF0000F00000000B2F3
:3D311600020000000000000000000000A00100000018A40100000000A00100000000000068800668000600000068000440000000000068000668800600000000AF68
:3D315300020000000000000000000000C0010000003CC00100000000C00500000000000070000770000F11040070000552400000000070000F7100070000008081B0
:3D319000020000000000000000000000200000000010210000000000A00100000000000008800008001080000008008460020000000008000008800000000088E503
:3D31CD00000000000000000000000000200000000010200000000000A00100000000000008800008000E00000008000CE0000000000008002608800000000000E7A5
:3D320A00020000000000000000000000000200000018002000000000000000000000000000000004100400040000200460000000000000001400000000000088838C
:3D324700000000000000000000000000000200000018040000000000000000000000000080040800001CC00000800006E10200000000801004000400010000088733
:3D3284000000000000000000000000008021000000800000000000000004000000000000C000006008860000006004006008000000006000064400006004001087C9
:3D32C100000000000000000000000000C003000000166020000000006000000000000000588007F2000F980400F08089F00000000000F0880F588207F20000889E32
:3D32FE00000000000000000000000000A0010000001800410000000020000000000000004008046880060000006800006800000000006800064002046800000896B5
:3D333B00020000000000000000000000C0010000001C420300000000C00500000000000050000D71000710040070001170000000000070000FD1000574000008B30E
:3D337800000000000000000000000000200000000010010000000000200400000000000040100608800080000008000008000000000008004040002608000000A5FA
:3D33B500000000000000000000000000200000000010000800000000A0030000000000004000060C800040000008001C08000000000008000640080E08000080E2F4
:3D33F2000000000000000000000000000010000000180008000000008001000000000000400246001000000400000006800000000000000024C0000600000000D40D
:3D342F000200000000000000000000000000000000188403000000000000000000000000E0000E00004880000000044E80000000000000040CE0002E80040008EF9E
:3D346C00020000000000000000000000000100000018842100000000000400000000000060000E2000860000004001822000000000004001066400046004000094C1
:3D34A90000000000000000000000000060210000003EC003000000006000000000000000F0880F38080F98040058800138080000000058800FF08825F00000808FF6
:3D34E600020000000000000000000000004000000018A001000000000000000000000000680004A0800600000040000622040000000040000668002468000000E78F
:3D35230002000000000000000000000040020000003CC401000000004004000000000000700005720007100400D00201700000000000D0020F71000570000000E6F0
:3D3560000200000000000000000000000000000000182000000000008005000000000000080026208200C00000400086200200000000400000080004080000888398
:3D359D00000000000000000000000000800900000010240000000000000200000000000008000EA0800000000040080820000000000040082E08008408000080A75B
:3D35DA000000000000000000000000000008000000180000000000000000000000000000000000200000000400400246200000000000400224000004000400809E3C
:3D361700000000000000000000000000000200000098000201000000000000000000000000082E201080800000E00000201000000000E0000400040E04000000EC7D
:3D365400000110000110000110000110000110000110000111000110001110000000000040000440000440000440000440000440000440000440000440000480F6B5
:3D369100000000000000000000000000008200000000000000000000000200000000000080200882200802000080200080200000000080200882200882200000CF21
:3D36CE00800118800118800118800118000118800118000118800118000118000000000040000440000460000640000640000660000640000440000440000600CD63
:3D370B00800008800008800008800008800008800008800008800008800008000000000020000220000220000220000220000220000220000220000220000280E720
:3D374800000000000000000000000000400400804580410400000000200000000000000000808088000088270040000088040000000000002910808880000000F2A0
:3D378500401000000020000000000000000000000000000000000000000000000000000000000000000000000040000000000000000000000000000000000080C017
:3D37C200000000000000000000000000000000004000000000000000000000000000000000000001005104000008000000000000000000000000000000000880AFF5
:3D37FF000000000000000000000008A2000040000040000000000000000000000000000000000800000000000000002000002000000020000000008000000000CFAC
:3D383C004010000000200000000008A24004408004C04104000000002000000000000000008088880051AC2700680020880420000000000029108008A0000880F047
:3D387900000000000000000000000000000000000000000000000000000000000000000000000000000000000000000000000000000000000000000000000080E7AB
:3D38B6000A0000000000000000000000000000000000000000000000000000000000000080000000000000000000004000000000000000000000000000000010F803
:3D38F300080000000000000000000000000200000020000200000000000000000000000000000000000000000000000000000000000000000000000000000080CD1F
:3D39300000000000000000000000000000000000000000000000000000000000000000000020000020000200000000004020000000000000000200000000008083B3
:3D396D00000000000000000000000000000000000000000000000000000000000000000000000000000020000000000000000000000000000000000000000080C5B8
:3D39AA0000000000000000000000000000000000000000000000000000000000000000000000020000000000000000000000000000000000000000040000008081D9
:3D39E700000000000000000000000000003000000000000000000000000000000000000000000014000000000000001000000000000000000000000000000080B41B
:3D3A2400000000000000000000000000000000000000000000000000000000000000000000000000000000000000000000000000000000000000000000000080E7FE
:3D3A6100000000000000000000000000000000000000000000000000000000000000000000000000000000000000000000000000000000000000000000000080E7C1
:3D3A9E00000000000000000000000000000000000050000000000000000000000000000000000000000020000000009400000000000000000000000000000080DD8A
:3D3ADB00000000000000000000000000000000000000000000000000000000000000000000000000001000000000008000000000000000010000000400000080ABEE
:3D3B1800000000000000000000000000000000000000000000000000000000000000000000000000400000000000000000000000000000000000000000000080A709
:3D3B5500000000000000000000000000000000000000000000000000000000000000000010010002000000000000000200000000000000020000003000000080F478
:3D3B9200000000000000000000000000400000000000000100000000800000000000000000000000000000000000180000000000000000000000100040000000F2DB
:3D3BCF00000000000000000000000000000000000000000000000000000000000000000000008000000000000000080000000000000000080000088000000080EF32
:3D3C0C00020000000000000000000000000100000000000000000000000000000000000000000000000000000000000000000000000000000000000000000080F404
:3D3C49000000000000000000000000000008000000800008000000000000000000000000000228800220000000A002008040000000008040208002080400009096EC
:3D3C8600000000000000000000000000000000000000000000000000000000000000000000040000004000000000000000000000000000000000000000000080E756
:3D3CC300000000000000000000000000000000000000000000000000000000000000000000000000000000000050000000000000000040000050004000000080A77D
:3D3D0000000000000000000000000000000000000000000000000000000000000000000000000806008001000000000000000000000000600410400000000000EA59
:3D3D3D00000000000000000000000000000000000000008000000000000000000000000000000000000000000000000000000000000000000000000000000080EF5A
:3D3D7A00000000000000000000000000000000000000000000000000000000000000000000000000000000000000010800000000000000000000000000000000E61D
:3D3DB700000000000000000000000000000000000000000000000000000000000000000000000000000000000000000000000000000000000000000000000080E768
:3D3DF400000000000000000000000000000000000000000000000000000000000000000000000000000000000000000000000000000000000000000000000080E72B
:3D3E3100004100000100400000000000404100000000000000000000000000000000000000000000000000000000000000000000000000000000000000000080F6DB
:3D3E6E00000000000000000000000000004000000000000000000000000000000000000000000000000000000000000000000000000000000000000000000080E374
:3D3EAB00000000000000000000000000000000000000000000000000000000000000000000000000000000000000000000000000000000000000000000000080E773
:3D3EE800000000000000000000000000000000000000000000000000000000000000000000000000000000000000000000000000000000000000000000000080E736
:3D3F2500000000000000000000000000000000000000000000000000000000000000000000000000000000000000000000000000000000000000000000000080E7F8
:3D3F6200000800000800000800000000000800000000000000000000000000000000000000000000000000000000000000000000000000000000000000000080E79B
:3D3F9F00000000400000000000000000000000000000000000000000000000000000000000000000000000000000000000000000000000000000000000000080A77E
:3D3FDC00000000000000000001000000000000000000000000000000000000000000000000000000000000000000000000000000000000000000000000000080F730
:3D401900000000000000000000000000000000000000000000000000000000000000000000000000000000000000000000000000000000000000000000000080E703
:3D405600000000000000000000000000000000000000000000000000000000000000000000000000000000000000000000000000000000000000000000000080E7C6
:3D409300000000000000000000000000000000000000000000000000000000000000000000000000000000000000000000000000000000000000000000000080E789
:3D40D000000000000000000000000000000000000000000000000000000000000000000000000000000000000000000000000000000000000000000000000080E74C
:3D410D00000000000000000000000000000000000000000000000000000000000000000000000000000000000000000000000000000000000000000000000080E70E
:3D414A00000000000000000000000000000000000000000000000000000000000000000000000000000000000000000000000000000000000000000000000080E7D1
:3D418700000000000000000000000000000000000000000000000000000000000000000000000000000000000000000000000000000000000000000000000080E794
:3D41C400000000000000000000000000000000000000000000000000000000000000000000000000000000000000000000000000000000000000000000000080E757
:3D420100000000000000000000000000000000000000000000000000000000000000000000000000000000000000000000000000000000000000000000000080E719
:3D423E00000200000000000000000000000200000000000000000000000000000000000000000000000000000000000000000000000000000000000000000080E7D8
:3D427B00000000000000000000000000000000000000000000000000000000000000000000000000000000000000000000000000000000000000000000000080E79F
:3D42B800002000002000002000000000002000000000000000000000000000000000000000000000000000000000000000000000000000000000000000000080E7E2
:3D42F500000000000100000000000A22000000000000000002080000000001000000000000000000004000000000000000000000000000000000000000000000EA2A
:3D433200000000000000000000000A22000000000000000000000000000001000000000000000000000000000000000000000000000000000000000000000000D74A
:3D436F00000000000000000000000000000000000000000002080000000000000000000000000000004000000000000000000000000000000000000000000080CB7C
:3D43AC00000000000100000000000000000000000000000000000000000000000000000000000000000000000000000000000000000000000000000000000080F65D
:3D43E900000000000000000000000000000000000000000000000000000000000000000000000000000000000000000000000000000000000000000000000080E730
:3D442600000110000110000110000110000110000110000110000110000110000000000040000440000440000440000440000440000440000440000440000480E7F5
:3D446300000000000000000000000000000000000000000000000000000000000000000000000000000000000000000000000000000000000000000000000080E7B5
:3D44A000820118800118800118800118800118800118800118800118800118000000000060000660000660000660000660000660000660000660000660000608EDF1
:3D44DD00800008800008800008800008800008800008800008800008800008000000000020000220000220000220000220000220000220000220000220000280E741
:3D451A00000000000100000100000000000000000000000000000000000000000000000000000000000000000000000000000000000000000000000000000080E7FB
:3D455700E04300602100602100000000E04300000000000000000000000000000000000000000000000000000000000000000000000000000000000000000080E778
:3D459400001000004000004000000000000800000000000000000000000000000000000000000000000000000000000000000000000000000000000000000000E66C
:3D45D100C20300400200400200000000C00100000000000000000000000000000000000000000000000000000000000000000000000000000000000000000008CFCC
:3D460E000002000000000004000000000000000000000000000000000000000000000000000000000000000000000000000000000000000000000000000000808168
:3D464B00000200800500800100000000000A00000000000000000000000000000000000000000000000000000000000000000000000000000000000000000000A37D
:3D468800800100000000000000000000800100000000000000000000000000000000000000000000000000000000000000000000000000000000000000000080E78C
:3D46C500820100000A00000A00000000800100000000000000000000000000000000000000000000000000000000000000000000000000000000000000000008EDAB
:3D470200000000000000000000000000800300000000000000000000000000000000000000000000000000000000000000000000000000000000000000000000DC1B
:3D473F00E04300E04300E04300000000C00100000000000000000000000000000000000000000000000000000000000000000000000000000000000000000080E1B2
:3D477C00000000000400000000000000A001000000000000000000000000000000000000000000000000000000000000000000000000000000000000000000009AC1
:3D47B900C00900C00100C00900000000C00100000000000000000000000000000000000000000000000000000000000000000000000000000000000000000080E748
:3D47F600020800000000000800000000200000000000000000000000000000000000000000000000000000000000000000000000000000000000000000000008CD7F
:3D483300000000000800000000000000200000000000000000000000000000000000000000000000000000000000000000000000000000000000000000000000C759
:3D487000820100800100800100000000008000000000000000000000000000000000000000000000000000000000000000000000000000000000000000000088FC82
:3D48AD00800100800100800100000000000200000000000000000000000000000000000000000000000000000000000000000000000000000000000000000000DC6D
:3D48EA00800100802000800300000000800300000000000000000000000000000000000000000000000000000000000000000000000000000000000000000080F4F6
:3D492700C01100600000C00100000000C00100000000000000000000000000000000000000000000000000000000000000000000000000000000000000000000DFC1
:3D496400A00100800900A00100000000A00100000000000000000000000000000000000000000000000000000000000000000000000000000000000000000000C7E3
:3D49A100C20100400200C00100000000C00100000000000000000000000000000000000000000000000000000000000000000000000000000000000000000088D6F4
:3D49DE00200000802100200000000000200000000000000000000000000000000000000000000000000000000000000000000000000000000000000000000000DCBF
:3D4A1B00200000000200200000000000200000000000000000000000000000000000000000000000000000000000000000000000000000000000000000000080E597
:3D4A5800000000801100000000000000001000000000000000000000000000000000000000000000000000000000000000000000000000000000000000000000FE82
:3D4A9500028200000000004000000000000000000000000000000000000000000000000000000000000000000000000000000000000000000000000000000008C355
:3D4AD200800100800100800300000000000000000000000000000000000000000000000000000000000000000000000000000000000000000000000000000000DC46
:3D4B0F00C01100C01100C00100000000E04300000000000000000000000000000000000000000000000000000000000000000000000000000000000000000080E182
:3D4B4C00A00100A00100A00100000000000000000000000000000000000000000000000000000000000000000000000000000000000000000000000000000000DE6B
:3D4B8900C00100C00100C00100000000C00500000000000000000000000000000000000000000000000000000000000000000000000000000000000000000080A3C4
:3D4BC60022000020000020000000000000040000000000000000000000000000000000000000000000000000000000000000000000000000000000000000000889BB
:3D4C0300200000200000200000000000000000000000000000000000000000000000000000000000000000000000000000000000000000000000000000000080C7CD
:3D4C4000022000000000000000000000800100000000000000000000000000000000000000000000000000000000000000000000000000000000000000000088F616
:3D4C7D00000000004000008000000000800100000000000000000000000000000000000000000000000000000000000000000000000000000000000000000000F2C7
:3D4CBA00801100800100000000000000800300000000000000000000000000000000000000000000000000000000000000000000000000000000000000000000DD4B
:3D4CF700C00100C01100E04300000000C00100000000000000000000000000000000000000000000000000000000000000000000000000000000000000000080E0AA
:3D4D3400A00100A00100000400000000A001000000000000000000000000000000000000000000000000000000000000000000000000000000000000000000009AC1
:3D4D7100C20100C00100C00300000000C00100000000000000000000000000000000000000000000000000000000000000000000000000000000000000000008CF26
:3D4DAE00200000200000000000000000200000000000000000000000000000000000000000000000000000000000000000000000000000000000000000000080C721
:3D4DEB002000002000000004000000002000000000000000000000000000000000000000000000000000000000000000000000000000000000000000000000808324
:3D4E2800000000000000800100000000000000000000000000000000000000000000000000000000000000000000000000000000000000000000000000000000FECE
:3D4E6500028200008000800100000000008200000000000000000000000000000000000000000000000000000000000000000000000000000000000000000088FC85
:3D4EA200801100000000800300000000800300000000000000000000000000000000000000000000000000000000000000000000000000000000000000000000FF3D
:3D4EDF00C00100E04300C00100000000C00100000000000000000000000000000000000000000000000000000000000000000000000000000000000000000080E1CF
:3D4F1C00A00100000000A00100000000A00100000000000000000000000000000000000000000000000000000000000000000000000000000000000000000000DE97
:3D4F5900C00100C00700C00100000000C001000000000000000000000000000000000000000000000000000000000000000000000000000000000000000000808110
:3D4F960022000000040020000000000020000000000000000000000000000000000000000000000000000000000000000000000000000000000000000000000889E7
:3D4FD300200000000200200000000000200000000000000000000000000000000000000000000000000000000000000000000000000000000000000000000080E5DA
:3D501000022000800100000001000000002000000000000000000000000000000000000000000000000000000000000000000000000000000000000000000088E433
:3D504D00000000800100000000000000000000000000000000000000000000000000000000000000000000000000000000000000000000000000000000000000FEA7
:3D508A00000000800100800300000000000000000000000000000000000000000000000000000000000000000000000000000000000000000000000000000080C5A0
:3D50C700E04300C01100C00100000000602000000000000000000000000000000000000000000000000000000000000000000000000000000000000000000000DB9C
:3D510400000000A00100A00100000000004100000000000000000000000000000000000000000000000000000000000000000000000000000000000000000080F279
:3D514100C20500C00100C00100000000400300000000000000000000000000000000000000000000000000000000000000000000000000000000000000000088839A
:3D517E00000400200000200000000000000000000000000000000000000000000000000000000000000000000000000000000000000000000000000000000080A38D
:3D51BB00000000200000200000000000000800000000000000000000000000000000000000000000000000000000000000000000000000000000000000000000E788
:3D51F800800100000200000200000000000800000000000000000000000000000000000000000000000000000000000000000000000000000000000000000080FE6F
:3D523500820100000000000200000000800300000000000000000000000000000000000000000000000000000000000000000000000000000000000000000008ED3F
:3D527200000000800100804000000000800100000000000000000000000000000000000000000000000000000000000000000000000000000000000000000000EB52
:3D52AF00602000C01100600000000000C01100000000000000000000000000000000000000000000000000000000000000000000000000000000000000000080E5DB
:3D52EC00004100A00100800900000000A00100000000000000000000000000000000000000000000000000000000000000000000000000000000000000000080EB0E
:3D532900400300C00100400200000000C00100000000000000000000000000000000000000000000000000000000000000000000000000000000000000000080F6CA
:3D536600020000200000802100000000200000000000000000000000000000000000000000000000000000000000000000000000000000000000000000000088F6A9
:3D53A300000A00200000000200000000200000000000000000000000000000000000000000000000000000000000000000000000000000000000000000000000E79A
:3D53E000000800000200801100000000008000000000000000000000000000000000000000000000000000000000000000000000000000000000000000000080D520
:3D541D00800300000200000000000000000200000000000000000000000000000000000000000000000000000000000000000000000000000000000000000000DCEF
:3D545A00008110008110008110000110008110000110000110000110000110000000000040000440000440000440000440000440000440000440000440000480E7B1
:3D549700000000000000000000000000000000000000000000000000000000000000000000000000000000000000000000000000000000000000000000000080E771
:3D54D400000118000118000118800118000118800118800118800118800118000000000060000660000660000660000660000660000660000660000660000680E73D
:3D551100800008800008800008800008800008800008800008800008800008000000000020000220000220000220000220000220000220000220000220000280E7FC
:3D554E00200000000000000000000000200200000000000000000000000000000000000000000000000000000000000000000000000000000000000000000080C599
:3D558B00000900000000000000000000000000000000000000000000000000000000000000000000000000000000000000000000000000000000000000000000F6E4
:3D55C800000000000000000000000000000000000000000000000000000000000000000000000000005104000000000000000000000000000000000000000080B31E
:3D5605000000000000000000000008A2000000000000000000000000008000000000000000000000000000000000000000000000000000000000000000000080EDD1
:3D5642002009000000008000000008A220020000000000000000000000800000000000000000000000510400000000000000000000000000000000000000008082DF
:3D567F00000000000000000000000000000000000000000000000000000000000000000000000000000000000000000000000000000000000000000000000080E787
:3D56BC00000000000000000000000000000000000000000000000000000000000000000000000000000000000000000000000000000000000000000000000080E74A
:3D56F900000200000200000200000000000200000000000000000000000000000000000000000000000000000000000000000000000000000000000000000080E705
:3D573600000000000000000000000000000000000000000000000000000000000000000000000000000000000000000000000000000000000000000000000080E7CF
:3D577300000000000000000000000000000000000000000000000000000000000000000000000000000000000000000000000000000000000000000000000080E792
:3D57B000000000000000000000000000000000000000000000000000000000000000000000000000000000000000000000000000000000000000000000000080E755
:3D57ED00000000003000003000000000000000000000000000000000000000000000000000000000000000000000000000000000000000000000000000000080E7B8
:3D582A00000100000200000000000000000000000000000000000000000000000000000000000000000000000000000000000000000000000000000000000080D4EA
:3D586700000000000000000000000000000000000000000000000000000000000000000000000000000000000000000000000000000000000000000000000080E79D
:3D58A400000000000500000500000000000000000000000000000000000000000000000000000000000000000000000000000000000000000000000000000080E756
:3D58E100000000000000000000000000000000000000000000000000000000000000000000000000000000000000000000000000000000000000000000000080E723
:3D591E00000000000000000000000000000000000000000000000000000000000000000000000000000000000000000000000000000000000000000000000080E7E5
:3D595B00000000000000000000000000000000000000000000000000000000000000000000000000000000000000000000000000000000000000000000000080E7A8
:3D599800000000400000400000000000000100000000000000000000000000000000000000000000000000000000000000000000000000000000000000000080F6DB
:3D59D500000000000000000000000000000000000000000000000000000000000000000000000000000000000000000000000000000000000000000000000080E72E
:3D5A1200000000000000000000000000000000000000000000000000000000000000000000000000000000000000000000000000000000000000000000000080E7F0
:3D5A4F00000800000800000800000000000800000000000000000000000000000000000000000000000000000000000000000000000000000000000000000080E793
:3D5A8C00000000000000000000000000000000000000000000000000000000000000000000000000000000000000000000000000000000000000000000000080E776
:3D5AC900000000000000000000000000000000000000000000000000000000000000000000000000000000000000000000000000000000000000000000000080E739
:3D5B0600C00000000000001000000000000000000000000000000000000000000000000000000000000000000000000000000000000000000000000000000000AEE4
:3D5B4300000000000000000000000000000000000000000000000000000000000000000000000000000000000000000000000000000000000000000000000080E7BE
:3D5B8000000000000000000000000000000000000000000000000000000000000000000000000000000000000000000000000000000000000000000000000080E781
:3D5BBD00000000000000000000000000000000000000000000000000000000000000000000000000000000000000000000000000000000000000000000000080E744
:3D5BFA00000000000000000000000000000000000000000000000000000000000000000000000000000000000000000000000000000000000000000000000080E707
:3D5C3700000000000000000000000000000000000000000000000000000000000000000000000000000000000000000000000000000000000000000000000080E7C9
:3D5C7400000000000000000000000000000000000000000000000000000000000000000000000000000000000000000000000000000000000000000000000080E78C
:3D5CB100000000000000000000000000000000000000000000000000000000000000000000000000000000000000000000000000000000000000000000000080E74F
:3D5CEE00000000000000000000000000000000000000000000000000000000000000000000000000000000000000000000000000000000000000000000000080E712
:3D5D2B00000000000000000000000000000000000000000000000000000000000000000000000000000000000000000000000000000000000000000000000080E7D4
:3D5D6800000000000000000000000000000000000000000000000000000000000000000000200002000000000002000000000000000000000000000000000082E771
:3D5DA500000000000000000000000000000000000000000000000000000000000000000000000000000000000000000000000000000000000000000000000080E75A
:3D5DE200000000000000000000000000000000000000000000000000000000000000000000000000000000000000000000000000000000000000000000000080E71D
:3D5E1F00000000000000000000000000000000000000000000000000000000000000000000000000000000000000000000000000000000000000000000000080E7DF
:3D5E5C00000000000000000000000000000000000000000000000000000000000000000000000000000000000000000000000000000000000000000000000080E7A2
:3D5E9900000000000000000000000000000000000000000000000000000000000000000000000000000000100000000000000000000000000000000000000080F745
:3D5ED600000000000000000000000000000000000000000000000000000000000000000000000000000000000000000000000000000000000000000000000080E728
:3D5F1300000000000000000000000000000000000000000000000000000000000000000000000000000000004000000000000000000000000000000000000080E3AE
:3D5F5000000000000000000000000000000000000000000000000000000000000000000010000000000000000100000000000000000000000000000000004080E360
:3D5F8D00000000000000000000000000000000000000000000000000000000000000000000000000000000000000000000000000000000000000000000000080E770
:3D5FCA00000000000000000000000000000000000000000000000000000000000000000000000000000000000000000000000000000000000000000000000080E733
:3D600700000000000000000000000000000000000000000000000000000000000000000000000000000010000000000000000000000000000000000000000080F6D6
:3D604400000000000000000000000000000000000000000000000000000000000000000000000000000000000000000000000000000000000000000000000080E7B8
:3D608100000000000000000000000000000000000000000000000000000000000000000000000000000000000000000000000000000000000000000000000080E77B
:3D60BE00000000000000000000000000000000000000000000000000000000000000000000000000000000000000000000000000000000000000000000000080E73E
:3D60FB00000000000000000000000000000000000000000000000005000000000000000088000000008088080000000000000000000000000000000000000080B794
:3D613800000000000000000000000000000000000000000000000001000000000000000000000000000000000000000000000000000000000000000000000080F7B2
:3D617500000000000000000000000000000000000000000000000000000000000000000000000000000400100000000000000000000000000000000000000080B3A6
:3D61B200000000000000000000000000000000000000000000000004000000000000000000000000000000000000000000000000000000000000000000000080A785
:3D61EF00000000000000000000000000000000000000000000000000000000000000000088000000000088000000000000000000000000000000000000000080E7FC
:3D622C00000110000110000110000110000110000110000110000110000110000000000040000440000440040440000440000440000440000440000440000480E3D1
:3D626900000000000000000000000000000000000000000000000000000000000000000000000000000000000000000000000000000000000000000000000080E791
:3D62A600820118800118800118800118800118800118800118800118800118000000000060000660000642000660000660000660000660000660000660000608EFE9
:3D62E3008000088000088000088000088000088000088000088000088000080000000000200002200008A0200220000220000220000220000220000220000280E579
:3D632000000000000000000000000000000000000000000000000000000000000000000000000000000000021000000000000000000000000000000000001080E5B9
:3D635D00000000000000000000000000000000000000000000000000000000000000000018080000802988800100000000000000000000000000000000800880F435
:3D639A00000000000000000000000000000000000000000000000000000000000000000000000000000008000000000000000000000000000000000000802080E5B9
:3D63D700020000000000000000000000000000000000000000000000000000000000000010010000001170012500000000000000000000000000000000000988DD61
:3D641400000000000000000000000000000000000000000000000000000000000000000000010000001088000000000000000000000000000000000000800000E74B
:3D6451000000000000000000000000000000000000000000000000000000000000000000000000000008E8000801000000000000000000000000000000802600F57A
:3D648E0000000000000000000000000000000000000000000000000000000000000000000000000000000000000000000000000000000000000000000000068081CA
:3D64CB00020000000000000000000000000000000000000000000000000000000000000060000000000404008000000000000000000000000000000000000008871B
:3D650800000000000000000000000000000000000000000000000000000000000000000000000000000000020000000000000000000000000000000000001080E4E0
:3D654500000000000000000000000000000000000000000000000000000000000000000018080000802D98802800000000000000000000000000000000800080B25A
:3D658200000000000000000000000000000000000000000000000000000000000000000000010000800000808000000000000000000000000000000000801000E7E4
:3D65BF00000000000000000000000000000000000000000000000000000000000000000010000000800510010500000000000000000000000000000000000F8099CC
:3D65FC0002000000000000000000000000000000000000000000000000000000000000000000000080040080220000000000000000000000000000000080008881B1
:3D6639000000000000000000000000000000000000000000000000000000000000000000000000008000048002000000000000000000000000000000008028808F67
:3D667600020000000000000000000000000000000000000000000000000000000000000060000000000C60000E000000000000000000000000000000000004088B74
:3D66B300000000000000000000000000000000000000000000000000000000000000000060000000000860000A00000000000000000000000000000000001280E660
:3D66F000000000000000000000000000000000000000000000000000000000000000000000020000002000000000000000000000000000000000000000001080E6D5
:3D672D000000000000000000000000000000000000000000000000000000000000000000A8000000800598A02100000000000000000000000000000000800880BAE7
:3D676A00000000000000000000000000000000000000000000000000000000000000000008000000800008041000000000000000000000000000000000802080E04E
:3D67A7000200000000000000000000000000000000000000000000000000000000000000F00100008005F0000100000000000000000000000000000000000188B112
:3D67E400000000000000000000000000000000000000000000000000000000000000000008020000802468020000000000000000000000000000000000802080C57B
:3D682100000000000000000000000000000000000000000000000000000000000000000028000000800808000000000000000000000000000000000000800C8081F5
:3D685E000000000000000000000000000000000000000000000000000000000000000000C0000000000C6000060000000000000000000000000000000000068081C4
:3D689B000200000000000000000000000000000000000000000000000000000000000000A0000000000870000600000000000000000000000000000000002208FE78
:3D68D8000000000000000000000000000000000000000000000000000000000000000000000000000000600010000000000000000000000000000000000010808102
:3D6915000000000000000000000000000000000000000000000000000000000000000000180800008029688200000000000000000000000000000000008001809001
:3D695200000000000000000000000000000000000000000000000000000000000000000000000000000068800200000000000000000000000000000000000080A3FB
:3D698F00000000000000000000000000000000000000000000000000000000000000000010010000000174002700000000000000000000000000000000002900B73E
:3D69CC00020000000000000000000000000000000000000000000000000000000000000000010000000008808000000000000000000000000000000000000008E497
:3D6A0900000000000000000000000000000000000000000000000000000000000000000000000000000018800400000000000000000000000000000000001080B371
:3D6A4600020000000000000000000000000000000000000000000000000000000000000000020000000600000A00000000000000000000000000000000000088ABCC
:3D6A8300000000000000000000000000000000000000000000000000000000000000000040000000000600000A00000000000000000000000000000000000688896F
:3D6AC000000000000000000000000000000000000000000000000000000000000000000000000000001080001000000000000000000000000000000000001010F7E2
:3D6AFD00000000000000000000000000000000000000000000000000000000000000000028080000800028800000000000000000000000000000000000800088EF0D
:3D6B3A00000000000000000000000000000000000000000000000000000000000000000008000000800E08880E00000000000000000000000000000000801088EEE4
:3D6B77000200000000000000000000000000000000000000000000000000000000000000F0010000000F70000F00000000000000000000000000000000000F089BAE
:3D6BB4000000000000000000000000000000000000000000000000000000000000000000080100008000088106000000000000000000000000000000008000008983
:3D6BF10000000000000000000000000000000000000000000000000000000000000000002800000080013880060000000000000000000000000000000080100088E8
:3D6C2E000000000000000000000000000000000000000000000000000000000000000000C0000000000040020000000000000000000000000000000000000600839E
:3D6C6B000200000000000000000000000000000000000000000000000000000000000000A0000000000030000000000000000000000000000000000000000088FC96
:3D6CA800000000000000000000000000000000000000000000000000000000000000000000000000000000000000000000000000000000000000000000000800E7C0
:3D6CE500000000000000000000000000000000000000000000000000000000000000000088020000801008812100000000000000000000000000000000800180EFBE
:3D6D22000000000000000000000000000000000000000000000000000000000000000000280000008010E8001000000000000000000000000000000000000081BB48
:3D6D5F00000000000000000000000000000000000000000000000000000000000000000070010000000DF0000100000000000000000000000000000000000180B354
:3D6D9C00020000000000000000000000000000000000000000000000000000000000000008000000800408000000000000000000000000000000000000000088A1FB
:3D6DD9000000000000000000000000000000000000000000000000000000000000000000C8010000802508002800000000000000000000000000000000000000FFE0
:3D6E16000200000000000000000000000000000000000000000000000000000000000000A0000000000C00000000000000000000000000000000000000000608ED96
:3D6E53000200000000000000000000000000000000000000000000000000000000000000A0000000000800000600000000000000000000000000000000000680C705
:3D6E9000000000000000000000000000000000000000000000000000000000000000000020000000001000010000000000000000000000000000000000000680A36B
:3D6ECD00020000000000000000000000000000000000000000000000000000000000000018010000800D88802900000000000000000000000000000000801F00CD43
:3D6F0A00020000000000000000000000000000000000000000000000000000000000000000000000800008042200000000000000000000000000000000000681B75C
:3D6F47000200000000000000000000000000000000000000000000000000000000000000900800008005F00009000000000000000000000000000000000005089A4E
:3D6F8400000000000000000000000000000000000000000000000000000000000000000000010000800408000000000000000000000000000000000000000680C4F9
:3D6FC100000000000000000000000000000000000000000000000000000000000000000000000000802018024000000000000000000000000000000000002E0096D5
:3D6FFE00000000000000000000000000000000000000000000000000000000000000000000020000000C60000000000000000000000000000000000000002600A31F
:3D703B00020000000000000000000000000000000000000000000000000000000000000000000000000800000001000000000000000000000000000000000E089B5C
:3D70780000000000000000000000000000000000000000000000000000000000000000006000060000006000060000000008000000000000000000000000168088E9
:3D70B500000000000000000000000000000000000000000000000000000000000000000078011E008018E0812700000018000000000000000000000000800180EDE1
:3D70F200000000000000000000000000000000000000000000000000000000000000000060800600801068001400000000100000000000000000000000000E80BB16
:3D712F000000000000000000000000000000000000000000000000000000000000000000F0080700000770000700000090000000000000000000000000000780FE91
:3D716C00020000000000000000000000000000000000000000000000000000000000000020810000800808000600000000000000000000000000000000002608C4BB
